:100000000C945D000C9485000C9485000C94850084
:100010000C9485000C9485000C9485000C9485004C
:100020000C9485000C9485000C9485000C9485003C
:100030000C9485000C9485000C9485000C9485002C
:100040000C9478010C9485000C9476030C94B903FD
:100050000C9485000C9485000C9485000C9485000C
:100060000C9485000C94850000000007000201003C
:100070000003040600000000000000000102040864
:100080001020408001020408102001020408102002
:10009000040404040404040402020202020203032E
:1000A0000303030300000000250028002B000000CC
:1000B0000000240027002A00750411241FBECFEF82
:1000C000D8E0DEBFCDBF11E0A0E0B1E0E4EEFAE0A1
:1000D00002C005900D92AA35B107D9F712E0AAE542
:1000E000B1E001C01D92AC3CB107E1F710E0CAEBF2
:1000F000D0E004C02297FE010E946C05C83BD107E6
:10010000C9F70E94CB040C9445050C94000040E80C
:1001100055E260E070E082E292E00E94F40360E069
:1001200071E082E292E00E94330561E08DE00C9480
:100130006F02FF920F931F93CF93DF93F82E80915E
:100140005C018130F1F463E171E082E292E00E94AF
:10015000160509E911E0E8018C2F801B8F1558F472
:10016000699182E292E00E94180560E282E292E0E8
:100170000E941805F1CF82E292E00E941F051092C2
:100180005C01DF91CF911F910F91FF900895DF9255
:10019000EF92FF920F931F93CF93DF93D82E882374
:1001A00099F189E9E82E81E0F82E0BE911E0E701E9
:1001B0008C2F8E198D15A8F54991552747FD50951F
:1001C00020915D0130E042175307D9F4488155274B
:1001D00047FD509520915E0130E04217530789F4A6
:1001E000F8014081552747FD509520915F0130E08F
:1001F0004217530731F464E271E082E292E00E9418
:1002000016050F5F1F4FD4CF6FE271E082E292E0DC
:10021000DF91CF911F910F91FF90EF90DF900C94A1
:100220001605DF91CF911F910F91FF90EF90DF9016
:1002300008951F93CF93DF93C82FD1E01FE782E289
:1002400092E00E94DE021816190674F580915C0196
:1002500081112AC082E292E00E940B038111D093A7
:100260005B0120915B01213051F790915A018D3053
:1002700071F0E92FF0E0E756FE4F80839F5F97FD16
:1002800003C090935A01DBCF10935A01D8CFC92FE6
:10029000E92FF0E0E756FE4F108210925B011092BA
:1002A0005A0120935C01CBCF8C2FDF91CF911F910E
:1002B0000895CF9361E08DE00E94A80268EE73E09C
:1002C00080E090E00E94E50160E08DE00E94A802DD
:1002D00068EE73E080E090E00E94E50180E00E941B
:1002E0001901C82F0E9499008C2FCF910C94C70040
:1002F0001F920F920FB60F9211242F933F938F935B
:100300009F93AF93BF9380911A0290911B02A0918B
:100310001C02B0911D023091190223E0230F2D37EA
:1003200020F40196A11DB11D05C026E8230F0296F9
:10033000A11DB11D2093190280931A0290931B02F4
:10034000A0931C02B0931D0280911E0290911F0287
:10035000A0912002B09121020196A11DB11D8093B0
:100360001E0290931F02A0932002B0932102BF911E
:10037000AF919F918F913F912F910F900FBE0F9052
:100380001F9018953FB7F89480911E0290911F021C
:10039000A0912002B091210226B5A89B05C02F3F55
:1003A00019F00196A11DB11D3FBF6627782F892F37
:1003B0009A2F620F711D811D911D42E0660F771FFC
:1003C000881F991F4A95D1F70895CF92DF92EF9237
:1003D000FF92CF93DF936B017C010E94C201EB017E
:1003E000C114D104E104F10479F00E94C2016C1B34
:1003F0007D0B683E7340A0F381E0C81AD108E10884
:10040000F108C851DC4FECCFDF91CF91FF90EF9016
:10041000DF90CF900895789484B5826084BD84B5D0
:10042000816084BD85B5826085BD85B5816085BDEF
:10043000EEE6F0E0808181608083E1E8F0E0108208
:10044000808182608083808181608083E0E8F0E049
:10045000808181608083E1EBF0E080818460808333
:10046000E0EBF0E0808181608083EAE7F0E080816A
:1004700084608083808182608083808181608083CA
:100480008081806880831092C1000895833081F05C
:1004900028F4813099F08230A1F008958630A9F0D7
:1004A0008730B9F08430D1F4809180008F7D03C013
:1004B000809180008F7780938000089584B58F7736
:1004C00002C084B58F7D84BD08958091B0008F7780
:1004D00003C08091B0008F7D8093B0000895CF93CA
:1004E000DF9390E0FC01E458FF4F2491FC01E057BA
:1004F000FF4F8491882349F190E0880F991FFC01F8
:10050000E255FF4FA591B4918C559F4FFC01C591C9
:10051000D4919FB7611108C0F8948C9120958223E3
:100520008C93888182230AC0623051F4F8948C91B4
:10053000322F309583238C938881822B888304C04B
:10054000F8948C91822B8C939FBFDF91CF9108956B
:100550000F931F93CF93DF931F92CDB7DEB7282F52
:1005600030E0F901E859FF4F8491F901E458FF4F59
:100570001491F901E057FF4F04910023C9F088233B
:1005800021F069830E9446026981E02FF0E0EE0FBE
:10059000FF1FEC55FF4FA591B4919FB7F8948C9134
:1005A000611103C01095812301C0812B8C939FBFE3
:1005B0000F90DF91CF911F910F910895FC01248539
:1005C0003585F901E05CFF4F80819181F901EE5B97
:1005D000FF4F20813181821B930B8F7399270895E0
:1005E000FC0184859585FC01E05CFF4F40815181D1
:1005F000FC01EE5BFF4F208131814217530741F030
:100600000190F081E02DE80FF91F808190E00895BE
:100610008FEF9FEF0895FC0184859585FC01E05CD8
:10062000FF4F40815181FC01EE5BFF4F2081318102
:100630004217530779F0A081B181A80FB91F8C919F
:10064000208131812F5F3F4F2F73332731832083E8
:1006500090E008958FEF9FEF0895FC0181A188231A
:1006600029F0A489B5898C9186FFFBCF11A208954A
:10067000CF93DF93FC0126853785D901A05CBF4F5E
:100680008D919C91119701968F739927E901CE5B0B
:10069000DF4F4881598184179507D9F30D90BC919C
:1006A000A02DA20FB31F6C93A685B785A05CBF4F8A
:1006B00011969C938E93A689B7892C9181E090E046
:1006C000078C02C0880F991F0A94E2F7282B2C93FD
:1006D00081E081A30488F589E02D80818064808396
:1006E00081E090E0DF91CF91089508951F920F92DD
:1006F0000FB60F9211242F933F934F938F939F9395
:10070000EF93FF938091C00082FD1CC04091C60012
:100710008091C8029091C90201968F739927209108
:10072000CA023091CB028217930771F0E091C802A0
:10073000F091C902E857FD4F40839093C90280931E
:10074000C80202C08091C600FF91EF919F918F91E6
:100750004F913F912F910F900FBE0F901F901895C2
:1007600082E292E00E94DE02892B11F00C94750364
:1007700008951F920F920FB60F9211242F933F935B
:100780008F939F93EF93FF93209184023091850282
:1007900080918602909187022817390731F4809161
:1007A000C1008F7D8093C10014C0E0918602F0915A
:1007B0008702EC5BFD4F2081809186029091870239
:1007C00001968F73992790938702809386022093D6
:1007D000C600FF91EF919F918F913F912F910F90C4
:1007E0000FBE0F901F901895CF92DF92EF92FF925D
:1007F000CF93DF93EC016A017B01411581EE58072D
:1008000061057105F9F0EC89FD8981E090E008A0AF
:1008100002C0880F991F0A94E2F7808360E079E0B4
:100820008DE390E0A70196010E944805215031090F
:10083000410951095695479537952795211580E12E
:10084000380798F0EC89FD89108260E874E88EE141
:1008500090E0A70196010E94480521503109410905
:1008600051095695479537952795E889F989308339
:10087000EA89FB89208319A2EE89FF89408181E002
:1008800090E09C010C8C02C0220F331F0A94E2F707
:10089000422B4083EE89FF8940819C010D8C02C070
:1008A000220F331F0A94E2F7422B4083EE89FF891F
:1008B00040819C010E8C02C0220F331F0A94E2F784
:1008C000422B4083EE89FF8920810F8C02C0880F64
:1008D000991F0A94E2F7809582238083DF91CF915C
:1008E000FF90EF90DF90CF90089510922502109224
:1008F000240288EE93E0A0E0B0E08093260290937B
:100900002702A0932802B09329028EE491E09093ED
:1009100023028093220288E892E090932F02809332
:100920002E0284E492E0909331028093300285ECB1
:1009300090E0909333028093320284EC90E09093A5
:1009400035028093340280EC90E0909337028093DC
:10095000360281EC90E0909339028093380282EC69
:1009600090E090933B0280933A0286EC90E0909363
:100970003D0280933C0284E080933E0283E08093BA
:100980003F0287E08093400285E08093410281E04E
:100990008093420208950E940B020E948700C0EBE0
:1009A000D3E00E9459012097E1F30E94B003F9CFF0
:1009B000CF92DF92EF92FF920F931F93CF93DF932B
:1009C0006C017A01EB01E60EF71E00E010E0CE1597
:1009D000DF0561F06991D601ED91FC910190F08104
:1009E000E02DC6010995080F191FF1CFC801DF914D
:1009F000CF911F910F91FF90EF90DF90CF900895CE
:100A00006115710581F0DB010D900020E9F7AD0162
:100A100041505109461B570BDC01ED91FC910280BE
:100A2000F381E02D099480E090E008950C94000596
:100A3000DC01ED91FC910190F081E02D09940F9380
:100A40001F93CF93DF93EC016DE00E9418058C019A
:100A50006AE0CE010E941805800F911FDF91CF91AF
:100A60001F910F9108950F931F93CF93DF93EC0184
:100A70000E9400058C01CE010E941F05800F911F6E
:100A8000DF91CF911F910F910895F8940C94700508
:100A9000A1E21A2EAA1BBB1BFD010DC0AA1FBB1F82
:100AA000EE1FFF1FA217B307E407F50720F0A21BF4
:100AB000B30BE40BF50B661F771F881F991F1A9461
:100AC00069F760957095809590959B01AC01BD018B
:100AD000CF010895EE0FFF1F0590F491E02D0994CA
:040AE000F894FFCFB8
:100AE4003C41726475696E6F20697320726561643C
:100AF400793E0054686973206A75737420696E2E98
:100B04002E2E2100466F756E64206974210A004EF2
:100B14006F2061727261792076616C7565732074DF
:100B24006F2070617273652E0A00000000003803A4
:0A0B3400D804DE020B03F0022D03CB
:00000001FF
